{
  "_format": "hh-sol-artifact-1",
  "contractName": "lootDrop",
  "sourceName": "contracts/lootDrop.sol",
  "abi": [
    {
      "inputs": [
        {
          "internalType": "uint64",
          "name": "subscriptionId",
          "type": "uint64"
        },
        {
          "internalType": "address",
          "name": "vrfCoordinator",
          "type": "address"
        },
        {
          "internalType": "bytes32",
          "name": "_keyHash",
          "type": "bytes32"
        }
      ],
      "stateMutability": "nonpayable",
      "type": "constructor"
    },
    {
      "inputs": [
        {
          "internalType": "address",
          "name": "have",
          "type": "address"
        },
        {
          "internalType": "address",
          "name": "want",
          "type": "address"
        }
      ],
      "name": "OnlyCoordinatorCanFulfill",
      "type": "error"
    },
    {
      "inputs": [
        {
          "internalType": "address",
          "name": "have",
          "type": "address"
        },
        {
          "internalType": "address",
          "name": "owner",
          "type": "address"
        },
        {
          "internalType": "address",
          "name": "coordinator",
          "type": "address"
        }
      ],
      "name": "OnlyOwnerOrCoordinator",
      "type": "error"
    },
    {
      "inputs": [],
      "name": "ZeroAddress",
      "type": "error"
    },
    {
      "anonymous": false,
      "inputs": [
        {
          "indexed": false,
          "internalType": "address",
          "name": "vrfCoordinator",
          "type": "address"
        }
      ],
      "name": "CoordinatorSet",
      "type": "event"
    },
    {
      "anonymous": false,
      "inputs": [
        {
          "indexed": true,
          "internalType": "uint256",
          "name": "id",
          "type": "uint256"
        },
        {
          "indexed": false,
          "internalType": "string",
          "name": "name",
          "type": "string"
        },
        {
          "indexed": true,
          "internalType": "address",
          "name": "creator",
          "type": "address"
        }
      ],
      "name": "GiveawayCreated",
      "type": "event"
    },
    {
      "anonymous": false,
      "inputs": [
        {
          "indexed": true,
          "internalType": "uint256",
          "name": "id",
          "type": "uint256"
        },
        {
          "indexed": true,
          "internalType": "address",
          "name": "participant",
          "type": "address"
        }
      ],
      "name": "JoinedGiveaway",
      "type": "event"
    },
    {
      "anonymous": false,
      "inputs": [
        {
          "indexed": true,
          "internalType": "address",
          "name": "from",
          "type": "address"
        },
        {
          "indexed": true,
          "internalType": "address",
          "name": "to",
          "type": "address"
        }
      ],
      "name": "OwnershipTransferRequested",
      "type": "event"
    },
    {
      "anonymous": false,
      "inputs": [
        {
          "indexed": true,
          "internalType": "address",
          "name": "from",
          "type": "address"
        },
        {
          "indexed": true,
          "internalType": "address",
          "name": "to",
          "type": "address"
        }
      ],
      "name": "OwnershipTransferred",
      "type": "event"
    },
    {
      "anonymous": false,
      "inputs": [
        {
          "indexed": true,
          "internalType": "uint256",
          "name": "id",
          "type": "uint256"
        },
        {
          "indexed": false,
          "internalType": "address[]",
          "name": "winners",
          "type": "address[]"
        },
        {
          "indexed": false,
          "internalType": "uint256",
          "name": "amountEach",
          "type": "uint256"
        }
      ],
      "name": "PrizePaidOut",
      "type": "event"
    },
    {
      "anonymous": false,
      "inputs": [
        {
          "indexed": true,
          "internalType": "uint256",
          "name": "id",
          "type": "uint256"
        },
        {
          "indexed": false,
          "internalType": "uint256",
          "name": "requestId",
          "type": "uint256"
        }
      ],
      "name": "RandomnessRequested",
      "type": "event"
    },
    {
      "anonymous": false,
      "inputs": [
        {
          "indexed": true,
          "internalType": "uint256",
          "name": "id",
          "type": "uint256"
        },
        {
          "indexed": false,
          "internalType": "address[]",
          "name": "winners",
          "type": "address[]"
        }
      ],
      "name": "WinnersSelected",
      "type": "event"
    },
    {
      "inputs": [],
      "name": "acceptOwnership",
      "outputs": [],
      "stateMutability": "nonpayable",
      "type": "function"
    },
    {
      "inputs": [
        {
          "internalType": "string",
          "name": "_name",
          "type": "string"
        },
        {
          "internalType": "enum lootDrop.PrizeType",
          "name": "_prizeType",
          "type": "uint8"
        },
        {
          "internalType": "uint256",
          "name": "_prizeAmount",
          "type": "uint256"
        },
        {
          "internalType": "uint32",
          "name": "_numWinners",
          "type": "uint32"
        },
        {
          "internalType": "uint32",
          "name": "_maxParticipants",
          "type": "uint32"
        },
        {
          "internalType": "uint256",
          "name": "_durationInSeconds",
          "type": "uint256"
        }
      ],
      "name": "createGiveaway",
      "outputs": [],
      "stateMutability": "payable",
      "type": "function"
    },
    {
      "inputs": [],
      "name": "getActiveGiveaways",
      "outputs": [
        {
          "internalType": "uint256[]",
          "name": "activeIds",
          "type": "uint256[]"
        }
      ],
      "stateMutability": "view",
      "type": "function"
    },
    {
      "inputs": [
        {
          "internalType": "uint256",
          "name": "_giveawayId",
          "type": "uint256"
        }
      ],
      "name": "getParticipants",
      "outputs": [
        {
          "internalType": "address[]",
          "name": "",
          "type": "address[]"
        }
      ],
      "stateMutability": "view",
      "type": "function"
    },
    {
      "inputs": [
        {
          "internalType": "uint256",
          "name": "_giveawayId",
          "type": "uint256"
        }
      ],
      "name": "getWinners",
      "outputs": [
        {
          "internalType": "address[]",
          "name": "",
          "type": "address[]"
        }
      ],
      "stateMutability": "view",
      "type": "function"
    },
    {
      "inputs": [
        {
          "internalType": "uint256",
          "name": "",
          "type": "uint256"
        }
      ],
      "name": "giveaways",
      "outputs": [
        {
          "internalType": "uint256",
          "name": "id",
          "type": "uint256"
        },
        {
          "internalType": "string",
          "name": "name",
          "type": "string"
        },
        {
          "internalType": "enum lootDrop.PrizeType",
          "name": "prizeType",
          "type": "uint8"
        },
        {
          "internalType": "uint256",
          "name": "prizeAmount",
          "type": "uint256"
        },
        {
          "internalType": "uint256",
          "name": "startTime",
          "type": "uint256"
        },
        {
          "internalType": "uint256",
          "name": "endTime",
          "type": "uint256"
        },
        {
          "internalType": "address",
          "name": "creator",
          "type": "address"
        },
        {
          "internalType": "uint32",
          "name": "numWinners",
          "type": "uint32"
        },
        {
          "internalType": "uint32",
          "name": "maxParticipants",
          "type": "uint32"
        },
        {
          "internalType": "bool",
          "name": "isActive",
          "type": "bool"
        },
        {
          "internalType": "bool",
          "name": "randomnessRequested",
          "type": "bool"
        },
        {
          "internalType": "bool",
          "name": "paidOut",
          "type": "bool"
        }
      ],
      "stateMutability": "view",
      "type": "function"
    },
    {
      "inputs": [
        {
          "internalType": "uint256",
          "name": "",
          "type": "uint256"
        },
        {
          "internalType": "address",
          "name": "",
          "type": "address"
        }
      ],
      "name": "hasJoined",
      "outputs": [
        {
          "internalType": "bool",
          "name": "",
          "type": "bool"
        }
      ],
      "stateMutability": "view",
      "type": "function"
    },
    {
      "inputs": [
        {
          "internalType": "uint256",
          "name": "_giveawayId",
          "type": "uint256"
        }
      ],
      "name": "joinGiveaway",
      "outputs": [],
      "stateMutability": "nonpayable",
      "type": "function"
    },
    {
      "inputs": [],
      "name": "lastRequestId",
      "outputs": [
        {
          "internalType": "uint256",
          "name": "",
          "type": "uint256"
        }
      ],
      "stateMutability": "view",
      "type": "function"
    },
    {
      "inputs": [],
      "name": "nextGiveawayId",
      "outputs": [
        {
          "internalType": "uint256",
          "name": "",
          "type": "uint256"
        }
      ],
      "stateMutability": "view",
      "type": "function"
    },
    {
      "inputs": [],
      "name": "owner",
      "outputs": [
        {
          "internalType": "address",
          "name": "",
          "type": "address"
        }
      ],
      "stateMutability": "view",
      "type": "function"
    },
    {
      "inputs": [
        {
          "internalType": "uint256",
          "name": "_giveawayId",
          "type": "uint256"
        }
      ],
      "name": "payoutWinners",
      "outputs": [],
      "stateMutability": "nonpayable",
      "type": "function"
    },
    {
      "inputs": [
        {
          "internalType": "uint256",
          "name": "requestId",
          "type": "uint256"
        },
        {
          "internalType": "uint256[]",
          "name": "randomWords",
          "type": "uint256[]"
        }
      ],
      "name": "rawFulfillRandomWords",
      "outputs": [],
      "stateMutability": "nonpayable",
      "type": "function"
    },
    {
      "inputs": [
        {
          "internalType": "uint256",
          "name": "",
          "type": "uint256"
        }
      ],
      "name": "requestIdToGiveaway",
      "outputs": [
        {
          "internalType": "uint256",
          "name": "",
          "type": "uint256"
        }
      ],
      "stateMutability": "view",
      "type": "function"
    },
    {
      "inputs": [
        {
          "internalType": "uint256",
          "name": "_giveawayId",
          "type": "uint256"
        },
        {
          "internalType": "bool",
          "name": "enableNativePayment",
          "type": "bool"
        }
      ],
      "name": "requestRandomWinner",
      "outputs": [],
      "stateMutability": "nonpayable",
      "type": "function"
    },
    {
      "inputs": [],
      "name": "s_vrfCoordinator",
      "outputs": [
        {
          "internalType": "contract IVRFCoordinatorV2Plus",
          "name": "",
          "type": "address"
        }
      ],
      "stateMutability": "view",
      "type": "function"
    },
    {
      "inputs": [
        {
          "internalType": "address",
          "name": "_vrfCoordinator",
          "type": "address"
        }
      ],
      "name": "setCoordinator",
      "outputs": [],
      "stateMutability": "nonpayable",
      "type": "function"
    },
    {
      "inputs": [
        {
          "internalType": "address",
          "name": "to",
          "type": "address"
        }
      ],
      "name": "transferOwnership",
      "outputs": [],
      "stateMutability": "nonpayable",
      "type": "function"
    }
  ],
  "bytecode": "0x60c06040523480156200001157600080fd5b50604051620044823803806200448283398181016040528101906200003791906200042e565b81338060008073ffffffffffffffffffffffffffffffffffffffff168273ffffffffffffffffffffffffffffffffffffffff1603620000ad576040517f08c379a0000000000000000000000000000000000000000000000000000000008152600401620000a490620004eb565b60405180910390fd5b816000806101000a81548173ffffffffffffffffffffffffffffffffffffffff021916908373ffffffffffffffffffffffffffffffffffffffff160217905550600073ffffffffffffffffffffffffffffffffffffffff168173ffffffffffffffffffffffffffffffffffffffff1614620001345762000133816200021560201b60201c565b5b505050600073ffffffffffffffffffffffffffffffffffffffff168173ffffffffffffffffffffffffffffffffffffffff16036200019e576040517fd92e233d00000000000000000000000000000000000000000000000000000000815260040160405180910390fd5b80600260006101000a81548173ffffffffffffffffffffffffffffffffffffffff021916908373ffffffffffffffffffffffffffffffffffffffff1602179055505060016003819055508267ffffffffffffffff1660808167ffffffffffffffff16815250508060a081815250505050506200057f565b3373ffffffffffffffffffffffffffffffffffffffff168173ffffffffffffffffffffffffffffffffffffffff160362000286576040517f08c379a00000000000000000000000000000000000000000000000000000000081526004016200027d906200055d565b60405180910390fd5b80600160006101000a81548173ffffffffffffffffffffffffffffffffffffffff021916908373ffffffffffffffffffffffffffffffffffffffff1602179055508073ffffffffffffffffffffffffffffffffffffffff1660008054906101000a900473ffffffffffffffffffffffffffffffffffffffff1673ffffffffffffffffffffffffffffffffffffffff167fed8889f560326eb138920d842192f0eb3dd22b4f139c87a2c57538e05bae127860405160405180910390a350565b600080fd5b600067ffffffffffffffff82169050919050565b620003688162000349565b81146200037457600080fd5b50565b60008151905062000388816200035d565b92915050565b600073ffffffffffffffffffffffffffffffffffffffff82169050919050565b6000620003bb826200038e565b9050919050565b620003cd81620003ae565b8114620003d957600080fd5b50565b600081519050620003ed81620003c2565b92915050565b6000819050919050565b6200040881620003f3565b81146200041457600080fd5b50565b6000815190506200042881620003fd565b92915050565b6000806000606084860312156200044a576200044962000344565b5b60006200045a8682870162000377565b93505060206200046d86828701620003dc565b9250506040620004808682870162000417565b9150509250925092565b600082825260208201905092915050565b7f43616e6e6f7420736574206f776e657220746f207a65726f0000000000000000600082015250565b6000620004d36018836200048a565b9150620004e0826200049b565b602082019050919050565b600060208201905081810360008301526200050681620004c4565b9050919050565b7f43616e6e6f74207472616e7366657220746f2073656c66000000000000000000600082015250565b6000620005456017836200048a565b915062000552826200050d565b602082019050919050565b60006020820190508181036000830152620005788162000536565b9050919050565b60805160a051613edd620005a5600039600061186d015260006118930152613edd6000f3fe6080604052600436106101095760003560e01c806379ba5097116100955780639eccacf6116100645780639eccacf614610365578063a3fc2e8d14610390578063c1e3bd3e146103b9578063f2fde38b146103f6578063fc2a88c31461041f57610109565b806379ba5097146102d157806383d00890146102e85780638da5cb5b146103115780638ea981171461033c57610109565b80635d663048116100dc5780635d663048146101d35780635f70673d146101ef578063681947191461022c5780636ac56ac0146102695780636b1426a41461029457610109565b80631fe543e31461010e5780632e5a13161461013757806335a6a80f146101605780633e06df3d1461018b575b600080fd5b34801561011a57600080fd5b50610135600480360381019061013091906122cb565b61044a565b005b34801561014357600080fd5b5061015e6004803603810190610159919061232b565b610510565b005b34801561016c57600080fd5b50610175610868565b6040516101829190612416565b60405180910390f35b34801561019757600080fd5b506101b260048036038101906101ad919061232b565b61098c565b6040516101ca9c9b9a999897969594939291906125c9565b60405180910390f35b6101ed60048036038101906101e8919061280b565b610ae8565b005b3480156101fb57600080fd5b506102166004803603810190610211919061232b565b610e41565b60405161022391906128b4565b60405180910390f35b34801561023857600080fd5b50610253600480360381019061024e91906128fb565b610e59565b604051610260919061293b565b60405180910390f35b34801561027557600080fd5b5061027e610e88565b60405161028b91906128b4565b60405180910390f35b3480156102a057600080fd5b506102bb60048036038101906102b6919061232b565b610e8e565b6040516102c89190612a14565b60405180910390f35b3480156102dd57600080fd5b506102e6610f32565b005b3480156102f457600080fd5b5061030f600480360381019061030a919061232b565b6110c7565b005b34801561031d57600080fd5b50610326611395565b6040516103339190612a36565b60405180910390f35b34801561034857600080fd5b50610363600480360381019061035e9190612a51565b6113be565b005b34801561037157600080fd5b5061037a61159f565b6040516103879190612add565b60405180910390f35b34801561039c57600080fd5b506103b760048036038101906103b29190612b24565b6115c5565b005b3480156103c557600080fd5b506103e060048036038101906103db919061232b565b6119c2565b6040516103ed9190612a14565b60405180910390f35b34801561040257600080fd5b5061041d60048036038101906104189190612a51565b611a66565b005b34801561042b57600080fd5b50610434611a7a565b60405161044191906128b4565b60405180910390f35b600260009054906101000a900473ffffffffffffffffffffffffffffffffffffffff1673ffffffffffffffffffffffffffffffffffffffff163373ffffffffffffffffffffffffffffffffffffffff16146105005733600260009054906101000a900473ffffffffffffffffffffffffffffffffffffffff166040517f1cf993f40000000000000000000000000000000000000000000000000000000081526004016104f7929190612b64565b60405180910390fd5b61050b838383611a80565b505050565b60006006600083815260200190815260200160002090508060090160009054906101000a900460ff16610578576040517f08c379a000000000000000000000000000000000000000000000000000000000815260040161056f90612bd9565b60405180910390fd5b80600501544211156105bf576040517f08c379a00000000000000000000000000000000000000000000000000000000081526004016105b690612c45565b60405180910390fd5b6007600083815260200190815260200160002060003373ffffffffffffffffffffffffffffffffffffffff1673ffffffffffffffffffffffffffffffffffffffff16815260200190815260200160002060009054906101000a900460ff161561065d576040517f08c379a000000000000000000000000000000000000000000000000000000000815260040161065490612cb1565b60405180910390fd5b8060060160189054906101000a900463ffffffff1663ffffffff168160070180549050106106c0576040517f08c379a00000000000000000000000000000000000000000000000000000000081526004016106b790612d1d565b60405180910390fd5b3373ffffffffffffffffffffffffffffffffffffffff168160060160009054906101000a900473ffffffffffffffffffffffffffffffffffffffff1673ffffffffffffffffffffffffffffffffffffffff1603610752576040517f08c379a000000000000000000000000000000000000000000000000000000000815260040161074990612d89565b60405180910390fd5b80600701339080600181540180825580915050600190039060005260206000200160009091909190916101000a81548173ffffffffffffffffffffffffffffffffffffffff021916908373ffffffffffffffffffffffffffffffffffffffff16021790555060016007600084815260200190815260200160002060003373ffffffffffffffffffffffffffffffffffffffff1673ffffffffffffffffffffffffffffffffffffffff16815260200190815260200160002060006101000a81548160ff0219169083151502179055503373ffffffffffffffffffffffffffffffffffffffff16827f13828650616b6cf42f83bf307044d6ef739ccb3c92cc9edc7d3f58f652da31ef60405160405180910390a35050565b60606000805b6005548110156108c3576006600082815260200190815260200160002060090160009054906101000a900460ff16156108b05781806108ac90612dd8565b9250505b80806108bb90612dd8565b91505061086e565b508067ffffffffffffffff8111156108de576108dd61268f565b5b60405190808252806020026020018201604052801561090c5781602001602082028036833780820191505090505b5091506000805b600554811015610986576006600082815260200190815260200160002060090160009054906101000a900460ff1615610973578084838061095390612dd8565b94508151811061096657610965612e20565b5b6020026020010181815250505b808061097e90612dd8565b915050610913565b50505090565b60066020528060005260406000206000915090508060000154908060010180546109b590612e7e565b80601f01602080910402602001604051908101604052809291908181526020018280546109e190612e7e565b8015610a2e5780601f10610a0357610100808354040283529160200191610a2e565b820191906000526020600020905b815481529060010190602001808311610a1157829003601f168201915b5050505050908060020160009054906101000a900460ff16908060030154908060040154908060050154908060060160009054906101000a900473ffffffffffffffffffffffffffffffffffffffff16908060060160149054906101000a900463ffffffff16908060060160189054906101000a900463ffffffff16908060090160009054906101000a900460ff16908060090160019054906101000a900460ff16908060090160029054906101000a900460ff1690508c565b60008363ffffffff1611610b31576040517f08c379a0000000000000000000000000000000000000000000000000000000008152600401610b2890612efb565b60405180910390fd5b8263ffffffff168263ffffffff161015610b80576040517f08c379a0000000000000000000000000000000000000000000000000000000008152600401610b7790612f8d565b60405180910390fd5b60008111610bc3576040517f08c379a0000000000000000000000000000000000000000000000000000000008152600401610bba90612ff9565b60405180910390fd5b60006002811115610bd757610bd66124d7565b5b856002811115610bea57610be96124d7565b5b14610c2a576040517f08c379a0000000000000000000000000000000000000000000000000000000008152600401610c2190613065565b60405180910390fd5b833414610c3685611d4e565b610c3f34611d4e565b604051602001610c50929190613159565b60405160208183030381529060405290610ca0576040517f08c379a0000000000000000000000000000000000000000000000000000000008152600401610c979190613193565b60405180910390fd5b5060006006600060055481526020019081526020016000209050600554816000018190555086816001019081610cd69190613357565b50858160020160006101000a81548160ff02191690836002811115610cfe57610cfd6124d7565b5b0217905550848160030181905550838160060160146101000a81548163ffffffff021916908363ffffffff160217905550828160060160186101000a81548163ffffffff021916908363ffffffff1602179055504281600401819055508142610d679190613429565b8160050181905550338160060160006101000a81548173ffffffffffffffffffffffffffffffffffffffff021916908373ffffffffffffffffffffffffffffffffffffffff16021790555060018160090160006101000a81548160ff0219169083151502179055503373ffffffffffffffffffffffffffffffffffffffff166005547fb69c6d74a17924e659bb2440bda38b783c7999f2d9e71ab6192fbbb65674d4f489604051610e189190613193565b60405180910390a360056000815480929190610e3390612dd8565b919050555050505050505050565b60086020528060005260406000206000915090505481565b60076020528160005260406000206020528060005260406000206000915091509054906101000a900460ff1681565b60055481565b606060066000838152602001908152602001600020600801805480602002602001604051908101604052809291908181526020018280548015610f2657602002820191906000526020600020905b8160009054906101000a900473ffffffffffffffffffffffffffffffffffffffff1673ffffffffffffffffffffffffffffffffffffffff1681526020019060010190808311610edc575b50505050509050919050565b600160009054906101000a900473ffffffffffffffffffffffffffffffffffffffff1673ffffffffffffffffffffffffffffffffffffffff163373ffffffffffffffffffffffffffffffffffffffff1614610fc2576040517f08c379a0000000000000000000000000000000000000000000000000000000008152600401610fb9906134a9565b60405180910390fd5b60008060009054906101000a900473ffffffffffffffffffffffffffffffffffffffff169050336000806101000a81548173ffffffffffffffffffffffffffffffffffffffff021916908373ffffffffffffffffffffffffffffffffffffffff1602179055506000600160006101000a81548173ffffffffffffffffffffffffffffffffffffffff021916908373ffffffffffffffffffffffffffffffffffffffff1602179055503373ffffffffffffffffffffffffffffffffffffffff168173ffffffffffffffffffffffffffffffffffffffff167f8be0079c531659141344cd1fd0a4f28419497f9722a3daafe3b4186f6b6457e060405160405180910390a350565b6110cf611e1c565b60006006600083815260200190815260200160002090508060090160009054906101000a900460ff1615611138576040517f08c379a000000000000000000000000000000000000000000000000000000000815260040161112f90613515565b60405180910390fd5b8060090160029054906101000a900460ff161561118a576040517f08c379a000000000000000000000000000000000000000000000000000000000815260040161118190613581565b60405180910390fd5b8060060160149054906101000a900463ffffffff1663ffffffff168160080180549050146111ed576040517f08c379a00000000000000000000000000000000000000000000000000000000081526004016111e4906135ed565b60405180910390fd5b60008160060160149054906101000a900463ffffffff1663ffffffff168260030154611219919061363c565b905060005b826008018054905081101561132d57600083600801828154811061124557611244612e20565b5b9060005260206000200160009054906101000a900473ffffffffffffffffffffffffffffffffffffffff1673ffffffffffffffffffffffffffffffffffffffff16836040516112939061369e565b60006040518083038185875af1925050503d80600081146112d0576040519150601f19603f3d011682016040523d82523d6000602084013e6112d5565b606091505b5050905080611319576040517f08c379a0000000000000000000000000000000000000000000000000000000008152600401611310906136ff565b60405180910390fd5b50808061132590612dd8565b91505061121e565b5060018260090160026101000a81548160ff021916908315150217905550827fe2cd2b12400203514caf3e509593665b9cf8dd139d90e9d069691857daa583af836008018360405161138092919061380b565b60405180910390a25050611392611e6b565b50565b60008060009054906101000a900473ffffffffffffffffffffffffffffffffffffffff16905090565b6113c6611395565b73ffffffffffffffffffffffffffffffffffffffff163373ffffffffffffffffffffffffffffffffffffffff161415801561144f5750600260009054906101000a900473ffffffffffffffffffffffffffffffffffffffff1673ffffffffffffffffffffffffffffffffffffffff163373ffffffffffffffffffffffffffffffffffffffff1614155b156114be573361145d611395565b600260009054906101000a900473ffffffffffffffffffffffffffffffffffffffff166040517f061db9c10000000000000000000000000000000000000000000000000000000081526004016114b59392919061383b565b60405180910390fd5b600073ffffffffffffffffffffffffffffffffffffffff168173ffffffffffffffffffffffffffffffffffffffff1603611524576040517fd92e233d00000000000000000000000000000000000000000000000000000000815260040160405180910390fd5b80600260006101000a81548173ffffffffffffffffffffffffffffffffffffffff021916908373ffffffffffffffffffffffffffffffffffffffff1602179055507fd1a6a14209a385a964d036e404cb5cfb71f4000cdb03c9366292430787261be6816040516115949190612a36565b60405180910390a150565b600260009054906101000a900473ffffffffffffffffffffffffffffffffffffffff1681565b60006006600084815260200190815260200160002090503373ffffffffffffffffffffffffffffffffffffffff168160060160009054906101000a900473ffffffffffffffffffffffffffffffffffffffff1673ffffffffffffffffffffffffffffffffffffffff161461166e576040517f08c379a0000000000000000000000000000000000000000000000000000000008152600401611665906138be565b60405180910390fd5b8060090160019054906101000a900460ff16156116c0576040517f08c379a00000000000000000000000000000000000000000000000000000000081526004016116b79061392a565b60405180910390fd5b8060090160009054906101000a900460ff16611711576040517f08c379a000000000000000000000000000000000000000000000000000000000815260040161170890613996565b60405180910390fd5b806005015442118061174357508060060160189054906101000a900463ffffffff1663ffffffff168160070180549050145b611782576040517f08c379a000000000000000000000000000000000000000000000000000000000815260040161177990613a02565b60405180910390fd5b8060060160149054906101000a900463ffffffff1663ffffffff16816007018054905010156117e6576040517f08c379a00000000000000000000000000000000000000000000000000000000081526004016117dd90613a6e565b60405180910390fd5b60008160090160006101000a81548160ff02191690831515021790555060018160090160016101000a81548160ff0219169083151502179055506000600260009054906101000a900473ffffffffffffffffffffffffffffffffffffffff1673ffffffffffffffffffffffffffffffffffffffff16639b1c385e6040518060c001604052807f000000000000000000000000000000000000000000000000000000000000000081526020017f000000000000000000000000000000000000000000000000000000000000000067ffffffffffffffff168152602001600361ffff1681526020016203d09063ffffffff168152602001600163ffffffff1681526020016119016040518060200160405280891515815250611e75565b8152506040518263ffffffff1660e01b81526004016119209190613bb1565b6020604051808303816000875af115801561193f573d6000803e3d6000fd5b505050506040513d601f19601f820116820180604052508101906119639190613be8565b905083600860008381526020019081526020016000208190555080600481905550837f3d94fecedaa4f90b8bd459797adb95f5bb11426025c5541390d9ccc1ad1b60a1826040516119b491906128b4565b60405180910390a250505050565b606060066000838152602001908152602001600020600701805480602002602001604051908101604052809291908181526020018280548015611a5a57602002820191906000526020600020905b8160009054906101000a900473ffffffffffffffffffffffffffffffffffffffff1673ffffffffffffffffffffffffffffffffffffffff1681526020019060010190808311611a10575b50505050509050919050565b611a6e611f0d565b611a7781611f9d565b50565b60045481565b6000600860008581526020019081526020016000205490506000600660008381526020019081526020016000209050600081600701805490509050600085856000818110611ad157611ad0612e20565b5b90506020020135905060005b8360060160149054906101000a900463ffffffff1663ffffffff16811015611d09576000838383604051602001611b15929190613c15565b6040516020818303038152906040528051906020012060001c611b389190613c3e565b90506000856007018281548110611b5257611b51612e20565b5b9060005260206000200160009054906101000a900473ffffffffffffffffffffffffffffffffffffffff16905085600801819080600181540180825580915050600190039060005260206000200160009091909190916101000a81548173ffffffffffffffffffffffffffffffffffffffff021916908373ffffffffffffffffffffffffffffffffffffffff1602179055506000600186611bf39190613c6f565b9050808314611c9c57866007018181548110611c1257611c11612e20565b5b9060005260206000200160009054906101000a900473ffffffffffffffffffffffffffffffffffffffff16876007018481548110611c5357611c52612e20565b5b9060005260206000200160006101000a81548173ffffffffffffffffffffffffffffffffffffffff021916908373ffffffffffffffffffffffffffffffffffffffff1602179055505b86600701805480611cb057611caf613ca3565b5b6001900381819060005260206000200160006101000a81549073ffffffffffffffffffffffffffffffffffffffff021916905590558580611cf090613cd2565b9650505050508080611d0190612dd8565b915050611add565b50837f5fa006001f7473b386c7bb4db093cb973ce5c895e51c3813bdbd723097d0349e84600801604051611d3d9190613cfb565b60405180910390a250505050505050565b606060006001611d5d846120c9565b01905060008167ffffffffffffffff811115611d7c57611d7b61268f565b5b6040519080825280601f01601f191660200182016040528015611dae5781602001600182028036833780820191505090505b509050600082602001820190505b600115611e11578080600190039150507f3031323334353637383961626364656600000000000000000000000000000000600a86061a8153600a8581611e0557611e0461360d565b5b04945060008503611dbc575b819350505050919050565b600260035403611e61576040517f08c379a0000000000000000000000000000000000000000000000000000000008152600401611e5890613d69565b60405180910390fd5b6002600381905550565b6001600381905550565b60607f92fd13387c7fe7befbc38d303d6468778fb9731bc4583f17d92989c6fcfdeaaa82604051602401611ea99190613db4565b604051602081830303815290604052907bffffffffffffffffffffffffffffffffffffffffffffffffffffffff19166020820180517bffffffffffffffffffffffffffffffffffffffffffffffffffffffff83818316178352505050509050919050565b60008054906101000a900473ffffffffffffffffffffffffffffffffffffffff1673ffffffffffffffffffffffffffffffffffffffff163373ffffffffffffffffffffffffffffffffffffffff1614611f9b576040517f08c379a0000000000000000000000000000000000000000000000000000000008152600401611f9290613e1b565b60405180910390fd5b565b3373ffffffffffffffffffffffffffffffffffffffff168173ffffffffffffffffffffffffffffffffffffffff160361200b576040517f08c379a000000000000000000000000000000000000000000000000000000000815260040161200290613e87565b60405180910390fd5b80600160006101000a81548173ffffffffffffffffffffffffffffffffffffffff021916908373ffffffffffffffffffffffffffffffffffffffff1602179055508073ffffffffffffffffffffffffffffffffffffffff1660008054906101000a900473ffffffffffffffffffffffffffffffffffffffff1673ffffffffffffffffffffffffffffffffffffffff167fed8889f560326eb138920d842192f0eb3dd22b4f139c87a2c57538e05bae127860405160405180910390a350565b600080600090507a184f03e93ff9f4daa797ed6e38ed64bf6a1f0100000000000000008310612127577a184f03e93ff9f4daa797ed6e38ed64bf6a1f010000000000000000838161211d5761211c61360d565b5b0492506040810190505b6d04ee2d6d415b85acef81000000008310612164576d04ee2d6d415b85acef8100000000838161215a5761215961360d565b5b0492506020810190505b662386f26fc10000831061219357662386f26fc1000083816121895761218861360d565b5b0492506010810190505b6305f5e10083106121bc576305f5e10083816121b2576121b161360d565b5b0492506008810190505b61271083106121e15761271083816121d7576121d661360d565b5b0492506004810190505b6064831061220457606483816121fa576121f961360d565b5b0492506002810190505b600a8310612213576001810190505b80915050919050565b6000604051905090565b600080fd5b600080fd5b6000819050919050565b61224381612230565b811461224e57600080fd5b50565b6000813590506122608161223a565b92915050565b600080fd5b600080fd5b600080fd5b60008083601f84011261228b5761228a612266565b5b8235905067ffffffffffffffff8111156122a8576122a761226b565b5b6020830191508360208202830111156122c4576122c3612270565b5b9250929050565b6000806000604084860312156122e4576122e3612226565b5b60006122f286828701612251565b935050602084013567ffffffffffffffff8111156123135761231261222b565b5b61231f86828701612275565b92509250509250925092565b60006020828403121561234157612340612226565b5b600061234f84828501612251565b91505092915050565b600081519050919050565b600082825260208201905092915050565b6000819050602082019050919050565b61238d81612230565b82525050565b600061239f8383612384565b60208301905092915050565b6000602082019050919050565b60006123c382612358565b6123cd8185612363565b93506123d883612374565b8060005b838110156124095781516123f08882612393565b97506123fb836123ab565b9250506001810190506123dc565b5085935050505092915050565b6000602082019050818103600083015261243081846123b8565b905092915050565b61244181612230565b82525050565b600081519050919050565b600082825260208201905092915050565b60005b83811015612481578082015181840152602081019050612466565b60008484015250505050565b6000601f19601f8301169050919050565b60006124a982612447565b6124b38185612452565b93506124c3818560208601612463565b6124cc8161248d565b840191505092915050565b7f4e487b7100000000000000000000000000000000000000000000000000000000600052602160045260246000fd5b60038110612517576125166124d7565b5b50565b600081905061252882612506565b919050565b60006125388261251a565b9050919050565b6125488161252d565b82525050565b600073ffffffffffffffffffffffffffffffffffffffff82169050919050565b60006125798261254e565b9050919050565b6125898161256e565b82525050565b600063ffffffff82169050919050565b6125a88161258f565b82525050565b60008115159050919050565b6125c3816125ae565b82525050565b6000610180820190506125df600083018f612438565b81810360208301526125f1818e61249e565b9050612600604083018d61253f565b61260d606083018c612438565b61261a608083018b612438565b61262760a083018a612438565b61263460c0830189612580565b61264160e083018861259f565b61264f61010083018761259f565b61265d6101208301866125ba565b61266b6101408301856125ba565b6126796101608301846125ba565b9d9c50505050505050505050505050565b600080fd5b7f4e487b7100000000000000000000000000000000000000000000000000000000600052604160045260246000fd5b6126c78261248d565b810181811067ffffffffffffffff821117156126e6576126e561268f565b5b80604052505050565b60006126f961221c565b905061270582826126be565b919050565b600067ffffffffffffffff8211156127255761272461268f565b5b61272e8261248d565b9050602081019050919050565b82818337600083830152505050565b600061275d6127588461270a565b6126ef565b9050828152602081018484840111156127795761277861268a565b5b61278484828561273b565b509392505050565b600082601f8301126127a1576127a0612266565b5b81356127b184826020860161274a565b91505092915050565b600381106127c757600080fd5b50565b6000813590506127d9816127ba565b92915050565b6127e88161258f565b81146127f357600080fd5b50565b600081359050612805816127df565b92915050565b60008060008060008060c0878903121561282857612827612226565b5b600087013567ffffffffffffffff8111156128465761284561222b565b5b61285289828a0161278c565b965050602061286389828a016127ca565b955050604061287489828a01612251565b945050606061288589828a016127f6565b935050608061289689828a016127f6565b92505060a06128a789828a01612251565b9150509295509295509295565b60006020820190506128c96000830184612438565b92915050565b6128d88161256e565b81146128e357600080fd5b50565b6000813590506128f5816128cf565b92915050565b6000806040838503121561291257612911612226565b5b600061292085828601612251565b9250506020612931858286016128e6565b9150509250929050565b600060208201905061295060008301846125ba565b92915050565b600081519050919050565b600082825260208201905092915050565b6000819050602082019050919050565b61298b8161256e565b82525050565b600061299d8383612982565b60208301905092915050565b6000602082019050919050565b60006129c182612956565b6129cb8185612961565b93506129d683612972565b8060005b83811015612a075781516129ee8882612991565b97506129f9836129a9565b9250506001810190506129da565b5085935050505092915050565b60006020820190508181036000830152612a2e81846129b6565b905092915050565b6000602082019050612a4b6000830184612580565b92915050565b600060208284031215612a6757612a66612226565b5b6000612a75848285016128e6565b91505092915050565b6000819050919050565b6000612aa3612a9e612a998461254e565b612a7e565b61254e565b9050919050565b6000612ab582612a88565b9050919050565b6000612ac782612aaa565b9050919050565b612ad781612abc565b82525050565b6000602082019050612af26000830184612ace565b92915050565b612b01816125ae565b8114612b0c57600080fd5b50565b600081359050612b1e81612af8565b92915050565b60008060408385031215612b3b57612b3a612226565b5b6000612b4985828601612251565b9250506020612b5a85828601612b0f565b9150509250929050565b6000604082019050612b796000830185612580565b612b866020830184612580565b9392505050565b7f4769766561776179206973206e6f742061637469766500000000000000000000600082015250565b6000612bc3601683612452565b9150612bce82612b8d565b602082019050919050565b60006020820190508181036000830152612bf281612bb6565b9050919050565b7f47697665617761792068617320656e6465640000000000000000000000000000600082015250565b6000612c2f601283612452565b9150612c3a82612bf9565b602082019050919050565b60006020820190508181036000830152612c5e81612c22565b9050919050565b7f416c7265616479206a6f696e6564000000000000000000000000000000000000600082015250565b6000612c9b600e83612452565b9150612ca682612c65565b602082019050919050565b60006020820190508181036000830152612cca81612c8e565b9050919050565b7f47697665617761792069732066756c6c00000000000000000000000000000000600082015250565b6000612d07601083612452565b9150612d1282612cd1565b602082019050919050565b60006020820190508181036000830152612d3681612cfa565b9050919050565b7f43726561746f722063616e6e6f74206a6f696e00000000000000000000000000600082015250565b6000612d73601383612452565b9150612d7e82612d3d565b602082019050919050565b60006020820190508181036000830152612da281612d66565b9050919050565b7f4e487b7100000000000000000000000000000000000000000000000000000000600052601160045260246000fd5b6000612de382612230565b91507fffffffffffffffffffffffffffffffffffffffffffffffffffffffffffffffff8203612e1557612e14612da9565b5b600182019050919050565b7f4e487b7100000000000000000000000000000000000000000000000000000000600052603260045260246000fd5b7f4e487b7100000000000000000000000000000000000000000000000000000000600052602260045260246000fd5b60006002820490506001821680612e9657607f821691505b602082108103612ea957612ea8612e4f565b5b50919050565b7f4d7573742068617665206174206c65617374206f6e652077696e6e6572000000600082015250565b6000612ee5601d83612452565b9150612ef082612eaf565b602082019050919050565b60006020820190508181036000830152612f1481612ed8565b9050919050565b7f4d6178207061727469636970616e7473206d757374206265203e3d206e756d6260008201527f6572206f662077696e6e65727300000000000000000000000000000000000000602082015250565b6000612f77602d83612452565b9150612f8282612f1b565b604082019050919050565b60006020820190508181036000830152612fa681612f6a565b9050919050565b7f4475726174696f6e206d757374206265203e2030000000000000000000000000600082015250565b6000612fe3601483612452565b9150612fee82612fad565b602082019050919050565b6000602082019050818103600083015261301281612fd6565b9050919050565b7f4f6e6c7920455448207072697a657320737570706f7274656420696e204d5650600082015250565b600061304f602083612452565b915061305a82613019565b602082019050919050565b6000602082019050818103600083015261307e81613042565b9050919050565b600081905092915050565b7f45787065637465643a2000000000000000000000000000000000000000000000600082015250565b60006130c6600a83613085565b91506130d182613090565b600a82019050919050565b60006130e782612447565b6130f18185613085565b9350613101818560208601612463565b80840191505092915050565b7f2c20476f743a2000000000000000000000000000000000000000000000000000600082015250565b6000613143600783613085565b915061314e8261310d565b600782019050919050565b6000613164826130b9565b915061317082856130dc565b915061317b82613136565b915061318782846130dc565b91508190509392505050565b600060208201905081810360008301526131ad818461249e565b905092915050565b60008190508160005260206000209050919050565b60006020601f8301049050919050565b600082821b905092915050565b6000600883026132177fffffffffffffffffffffffffffffffffffffffffffffffffffffffffffffffff826131da565b61322186836131da565b95508019841693508086168417925050509392505050565b600061325461324f61324a84612230565b612a7e565b612230565b9050919050565b6000819050919050565b61326e83613239565b61328261327a8261325b565b8484546131e7565b825550505050565b600090565b61329761328a565b6132a2818484613265565b505050565b5b818110156132c6576132bb60008261328f565b6001810190506132a8565b5050565b601f82111561330b576132dc816131b5565b6132e5846131ca565b810160208510156132f4578190505b613308613300856131ca565b8301826132a7565b50505b505050565b600082821c905092915050565b600061332e60001984600802613310565b1980831691505092915050565b6000613347838361331d565b9150826002028217905092915050565b61336082612447565b67ffffffffffffffff8111156133795761337861268f565b5b6133838254612e7e565b61338e8282856132ca565b600060209050601f8311600181146133c157600084156133af578287015190505b6133b9858261333b565b865550613421565b601f1984166133cf866131b5565b60005b828110156133f7578489015182556001820191506020850194506020810190506133d2565b868310156134145784890151613410601f89168261331d565b8355505b6001600288020188555050505b505050505050565b600061343482612230565b915061343f83612230565b925082820190508082111561345757613456612da9565b5b92915050565b7f4d7573742062652070726f706f736564206f776e657200000000000000000000600082015250565b6000613493601683612452565b915061349e8261345d565b602082019050919050565b600060208201905081810360008301526134c281613486565b9050919050565b7f4769766561776179207374696c6c206163746976650000000000000000000000600082015250565b60006134ff601583612452565b915061350a826134c9565b602082019050919050565b6000602082019050818103600083015261352e816134f2565b9050919050565b7f416c726561647920706169640000000000000000000000000000000000000000600082015250565b600061356b600c83612452565b915061357682613535565b602082019050919050565b6000602082019050818103600083015261359a8161355e565b9050919050565b7f57696e6e657273206e6f742066696e616c697a65640000000000000000000000600082015250565b60006135d7601583612452565b91506135e2826135a1565b602082019050919050565b60006020820190508181036000830152613606816135ca565b9050919050565b7f4e487b7100000000000000000000000000000000000000000000000000000000600052601260045260246000fd5b600061364782612230565b915061365283612230565b9250826136625761366161360d565b5b828204905092915050565b600081905092915050565b50565b600061368860008361366d565b915061369382613678565b600082019050919050565b60006136a98261367b565b9150819050919050565b7f5472616e73666572206661696c65640000000000000000000000000000000000600082015250565b60006136e9600f83612452565b91506136f4826136b3565b602082019050919050565b60006020820190508181036000830152613718816136dc565b9050919050565b600081549050919050565b60008190508160005260206000209050919050565b60008160001c9050919050565b600073ffffffffffffffffffffffffffffffffffffffff82169050919050565b600061377f61377a8361373f565b61374c565b9050919050565b6000613792825461376c565b9050919050565b6000600182019050919050565b60006137b18261371f565b6137bb8185612961565b93506137c68361372a565b8060005b838110156137fe576137db82613786565b6137e58882612991565b97506137f083613799565b9250506001810190506137ca565b5085935050505092915050565b6000604082019050818103600083015261382581856137a6565b90506138346020830184612438565b9392505050565b60006060820190506138506000830186612580565b61385d6020830185612580565b61386a6040830184612580565b949350505050565b7f4f6e6c792063726561746f722063616e20726571756573742077696e6e657273600082015250565b60006138a8602083612452565b91506138b382613872565b602082019050919050565b600060208201905081810360008301526138d78161389b565b9050919050565b7f52616e646f6d6e65737320616c72656164792072657175657374656400000000600082015250565b6000613914601c83612452565b915061391f826138de565b602082019050919050565b6000602082019050818103600083015261394381613907565b9050919050565b7f4769766561776179206e6f742061637469766500000000000000000000000000600082015250565b6000613980601383612452565b915061398b8261394a565b602082019050919050565b600060208201905081810360008301526139af81613973565b9050919050565b7f4769766561776179206f6e676f696e6700000000000000000000000000000000600082015250565b60006139ec601083612452565b91506139f7826139b6565b602082019050919050565b60006020820190508181036000830152613a1b816139df565b9050919050565b7f4e6f7420656e6f756768207061727469636970616e7473000000000000000000600082015250565b6000613a58601783612452565b9150613a6382613a22565b602082019050919050565b60006020820190508181036000830152613a8781613a4b565b9050919050565b6000819050919050565b613aa181613a8e565b82525050565b600061ffff82169050919050565b613abe81613aa7565b82525050565b613acd8161258f565b82525050565b600081519050919050565b600082825260208201905092915050565b6000613afa82613ad3565b613b048185613ade565b9350613b14818560208601612463565b613b1d8161248d565b840191505092915050565b600060c083016000830151613b406000860182613a98565b506020830151613b536020860182612384565b506040830151613b666040860182613ab5565b506060830151613b796060860182613ac4565b506080830151613b8c6080860182613ac4565b5060a083015184820360a0860152613ba48282613aef565b9150508091505092915050565b60006020820190508181036000830152613bcb8184613b28565b905092915050565b600081519050613be28161223a565b92915050565b600060208284031215613bfe57613bfd612226565b5b6000613c0c84828501613bd3565b91505092915050565b6000604082019050613c2a6000830185612438565b613c376020830184612438565b9392505050565b6000613c4982612230565b9150613c5483612230565b925082613c6457613c6361360d565b5b828206905092915050565b6000613c7a82612230565b9150613c8583612230565b9250828203905081811115613c9d57613c9c612da9565b5b92915050565b7f4e487b7100000000000000000000000000000000000000000000000000000000600052603160045260246000fd5b6000613cdd82612230565b915060008203613cf057613cef612da9565b5b600182039050919050565b60006020820190508181036000830152613d1581846137a6565b905092915050565b7f5265656e7472616e637947756172643a207265656e7472616e742063616c6c00600082015250565b6000613d53601f83612452565b9150613d5e82613d1d565b602082019050919050565b60006020820190508181036000830152613d8281613d46565b9050919050565b613d92816125ae565b82525050565b602082016000820151613dae6000850182613d89565b50505050565b6000602082019050613dc96000830184613d98565b92915050565b7f4f6e6c792063616c6c61626c65206279206f776e657200000000000000000000600082015250565b6000613e05601683612452565b9150613e1082613dcf565b602082019050919050565b60006020820190508181036000830152613e3481613df8565b9050919050565b7f43616e6e6f74207472616e7366657220746f2073656c66000000000000000000600082015250565b6000613e71601783612452565b9150613e7c82613e3b565b602082019050919050565b60006020820190508181036000830152613ea081613e64565b905091905056fea2646970667358221220d0a3228306c6760d7cc28218ec92087f705fa6dcda4fe622b4117139fedc970c64736f6c63430008140033",
  "linkReferences": {},
  "deployedLinkReferences": {}
}